{
  "_format": "hh-sol-artifact-1",
  "contractName": "MarriageRegistry",
  "sourceName": "contracts/MarriageRegistry.sol",
  "abi": [
    {
      "inputs": [
        {
          "internalType": "address",
          "name": "_feeTokenAddress",
          "type": "address"
        },
        {
          "internalType": "uint256",
          "name": "_initialFee",
          "type": "uint256"
        }
      ],
      "stateMutability": "nonpayable",
      "type": "constructor"
    },
    {
      "inputs": [
        {
          "internalType": "address",
          "name": "owner",
          "type": "address"
        }
      ],
      "name": "OwnableInvalidOwner",
      "type": "error"
    },
    {
      "inputs": [
        {
          "internalType": "address",
          "name": "account",
          "type": "address"
        }
      ],
      "name": "OwnableUnauthorizedAccount",
      "type": "error"
    },
    {
      "anonymous": false,
      "inputs": [
        {
          "indexed": true,
          "internalType": "address",
          "name": "partner1",
          "type": "address"
        },
        {
          "indexed": true,
          "internalType": "address",
          "name": "partner2",
          "type": "address"
        },
        {
          "indexed": false,
          "internalType": "uint256",
          "name": "timestamp",
          "type": "uint256"
        }
      ],
      "name": "Divorced",
      "type": "event"
    },
    {
      "anonymous": false,
      "inputs": [
        {
          "indexed": true,
          "internalType": "address",
          "name": "partner1",
          "type": "address"
        },
        {
          "indexed": true,
          "internalType": "address",
          "name": "partner2",
          "type": "address"
        },
        {
          "indexed": false,
          "internalType": "string",
          "name": "message",
          "type": "string"
        },
        {
          "indexed": false,
          "internalType": "uint256",
          "name": "timestamp",
          "type": "uint256"
        }
      ],
      "name": "MarriageCreated",
      "type": "event"
    },
    {
      "anonymous": false,
      "inputs": [
        {
          "indexed": true,
          "internalType": "address",
          "name": "previousOwner",
          "type": "address"
        },
        {
          "indexed": true,
          "internalType": "address",
          "name": "newOwner",
          "type": "address"
        }
      ],
      "name": "OwnershipTransferred",
      "type": "event"
    },
    {
      "inputs": [],
      "name": "divorce",
      "outputs": [],
      "stateMutability": "nonpayable",
      "type": "function"
    },
    {
      "inputs": [],
      "name": "feeToken",
      "outputs": [
        {
          "internalType": "contract IERC20",
          "name": "",
          "type": "address"
        }
      ],
      "stateMutability": "view",
      "type": "function"
    },
    {
      "inputs": [
        {
          "internalType": "address",
          "name": "_user",
          "type": "address"
        }
      ],
      "name": "getMarriageDetails",
      "outputs": [
        {
          "components": [
            {
              "internalType": "address",
              "name": "partner1",
              "type": "address"
            },
            {
              "internalType": "address",
              "name": "partner2",
              "type": "address"
            },
            {
              "internalType": "string",
              "name": "message",
              "type": "string"
            },
            {
              "internalType": "uint256",
              "name": "timestamp",
              "type": "uint256"
            },
            {
              "internalType": "bool",
              "name": "isActive",
              "type": "bool"
            }
          ],
          "internalType": "struct MarriageRegistry.Marriage",
          "name": "",
          "type": "tuple"
        }
      ],
      "stateMutability": "view",
      "type": "function"
    },
    {
      "inputs": [
        {
          "internalType": "address",
          "name": "",
          "type": "address"
        }
      ],
      "name": "isMarried",
      "outputs": [
        {
          "internalType": "bool",
          "name": "",
          "type": "bool"
        }
      ],
      "stateMutability": "view",
      "type": "function"
    },
    {
      "inputs": [],
      "name": "marriageFee",
      "outputs": [
        {
          "internalType": "uint256",
          "name": "",
          "type": "uint256"
        }
      ],
      "stateMutability": "view",
      "type": "function"
    },
    {
      "inputs": [
        {
          "internalType": "address",
          "name": "",
          "type": "address"
        }
      ],
      "name": "marriages",
      "outputs": [
        {
          "internalType": "address",
          "name": "partner1",
          "type": "address"
        },
        {
          "internalType": "address",
          "name": "partner2",
          "type": "address"
        },
        {
          "internalType": "string",
          "name": "message",
          "type": "string"
        },
        {
          "internalType": "uint256",
          "name": "timestamp",
          "type": "uint256"
        },
        {
          "internalType": "bool",
          "name": "isActive",
          "type": "bool"
        }
      ],
      "stateMutability": "view",
      "type": "function"
    },
    {
      "inputs": [
        {
          "internalType": "address",
          "name": "_partner",
          "type": "address"
        },
        {
          "internalType": "string",
          "name": "_message",
          "type": "string"
        }
      ],
      "name": "marry",
      "outputs": [],
      "stateMutability": "nonpayable",
      "type": "function"
    },
    {
      "inputs": [],
      "name": "owner",
      "outputs": [
        {
          "internalType": "address",
          "name": "",
          "type": "address"
        }
      ],
      "stateMutability": "view",
      "type": "function"
    },
    {
      "inputs": [],
      "name": "renounceOwnership",
      "outputs": [],
      "stateMutability": "nonpayable",
      "type": "function"
    },
    {
      "inputs": [
        {
          "internalType": "address",
          "name": "_newFeeTokenAddress",
          "type": "address"
        }
      ],
      "name": "setFeeToken",
      "outputs": [],
      "stateMutability": "nonpayable",
      "type": "function"
    },
    {
      "inputs": [
        {
          "internalType": "uint256",
          "name": "_newFee",
          "type": "uint256"
        }
      ],
      "name": "setMarriageFee",
      "outputs": [],
      "stateMutability": "nonpayable",
      "type": "function"
    },
    {
      "inputs": [
        {
          "internalType": "address",
          "name": "newOwner",
          "type": "address"
        }
      ],
      "name": "transferOwnership",
      "outputs": [],
      "stateMutability": "nonpayable",
      "type": "function"
    },
    {
      "inputs": [
        {
          "internalType": "address",
          "name": "_tokenAddress",
          "type": "address"
        }
      ],
      "name": "withdrawTokens",
      "outputs": [],
      "stateMutability": "nonpayable",
      "type": "function"
    }
  ],
  "bytecode": "0x60806040523480156200001157600080fd5b50604051620026d7380380620026d7833981810160405281019062000037919062000278565b33600073ffffffffffffffffffffffffffffffffffffffff168173ffffffffffffffffffffffffffffffffffffffff1603620000ad5760006040517f1e4fbdf7000000000000000000000000000000000000000000000000000000008152600401620000a49190620002d0565b60405180910390fd5b620000be816200010f60201b60201c565b5081600360006101000a81548173ffffffffffffffffffffffffffffffffffffffff021916908373ffffffffffffffffffffffffffffffffffffffff160217905550806004819055505050620002ed565b60008060009054906101000a900473ffffffffffffffffffffffffffffffffffffffff169050816000806101000a81548173ffffffffffffffffffffffffffffffffffffffff021916908373ffffffffffffffffffffffffffffffffffffffff1602179055508173ffffffffffffffffffffffffffffffffffffffff168173ffffffffffffffffffffffffffffffffffffffff167f8be0079c531659141344cd1fd0a4f28419497f9722a3daafe3b4186f6b6457e060405160405180910390a35050565b600080fd5b600073ffffffffffffffffffffffffffffffffffffffff82169050919050565b60006200020582620001d8565b9050919050565b6200021781620001f8565b81146200022357600080fd5b50565b60008151905062000237816200020c565b92915050565b6000819050919050565b62000252816200023d565b81146200025e57600080fd5b50565b600081519050620002728162000247565b92915050565b60008060408385031215620002925762000291620001d3565b5b6000620002a28582860162000226565b9250506020620002b58582860162000261565b9150509250929050565b620002ca81620001f8565b82525050565b6000602082019050620002e76000830184620002bf565b92915050565b6123da80620002fd6000396000f3fe608060405234801561001057600080fd5b50600436106100cf5760003560e01c80638da5cb5b1161008c578063bc51d33511610066578063bc51d335146101d8578063c400ad7014610208578063dff44b2f1461023c578063f2fde38b14610246576100cf565b80638da5cb5b1461016c5780639c66b57f1461018a578063a1dea091146101ba576100cf565b806315cce224146100d457806349df728c146100f0578063647846a51461010c5780636b86741e1461012a578063715018a6146101465780637419a09114610150575b600080fd5b6100ee60048036038101906100e991906114e3565b610262565b005b61010a600480360381019061010591906114e3565b61031d565b005b610114610476565b604051610121919061156f565b60405180910390f35b610144600480360381019061013f91906115ef565b61049c565b005b61014e610bd4565b005b61016a60048036038101906101659190611685565b610be8565b005b610174610bfa565b60405161018191906116c1565b60405180910390f35b6101a4600480360381019061019f91906114e3565b610c23565b6040516101b191906116f7565b60405180910390f35b6101c2610c43565b6040516101cf9190611721565b60405180910390f35b6101f260048036038101906101ed91906114e3565b610c49565b6040516101ff919061186f565b60405180910390f35b610222600480360381019061021d91906114e3565b610e91565b6040516102339594939291906118db565b60405180910390f35b610244610f9c565b005b610260600480360381019061025b91906114e3565b611245565b005b61026a6112cb565b600073ffffffffffffffffffffffffffffffffffffffff168173ffffffffffffffffffffffffffffffffffffffff16036102d9576040517f08c379a00000000000000000000000000000000000000000000000000000000081526004016102d0906119a7565b60405180910390fd5b80600360006101000a81548173ffffffffffffffffffffffffffffffffffffffff021916908373ffffffffffffffffffffffffffffffffffffffff16021790555050565b6103256112cb565b600081905060008173ffffffffffffffffffffffffffffffffffffffff166370a08231306040518263ffffffff1660e01b815260040161036591906116c1565b602060405180830381865afa158015610382573d6000803e3d6000fd5b505050506040513d601f19601f820116820180604052508101906103a691906119dc565b9050600081116103eb576040517f08c379a00000000000000000000000000000000000000000000000000000000081526004016103e290611a7b565b60405180910390fd5b8173ffffffffffffffffffffffffffffffffffffffff1663a9059cbb61040f610bfa565b836040518363ffffffff1660e01b815260040161042d929190611a9b565b6020604051808303816000875af115801561044c573d6000803e3d6000fd5b505050506040513d601f19601f820116820180604052508101906104709190611af0565b50505050565b600360009054906101000a900473ffffffffffffffffffffffffffffffffffffffff1681565b8273ffffffffffffffffffffffffffffffffffffffff163373ffffffffffffffffffffffffffffffffffffffff160361050a576040517f08c379a000000000000000000000000000000000000000000000000000000000815260040161050190611b8f565b60405180910390fd5b600260003373ffffffffffffffffffffffffffffffffffffffff1673ffffffffffffffffffffffffffffffffffffffff16815260200190815260200160002060009054906101000a900460ff1615610597576040517f08c379a000000000000000000000000000000000000000000000000000000000815260040161058e90611c21565b60405180910390fd5b600260008473ffffffffffffffffffffffffffffffffffffffff1673ffffffffffffffffffffffffffffffffffffffff16815260200190815260200160002060009054906101000a900460ff1615610624576040517f08c379a000000000000000000000000000000000000000000000000000000000815260040161061b90611cb3565b60405180910390fd5b6000600360009054906101000a900473ffffffffffffffffffffffffffffffffffffffff1673ffffffffffffffffffffffffffffffffffffffff1663dd62ed3e33306040518363ffffffff1660e01b8152600401610683929190611cd3565b602060405180830381865afa1580156106a0573d6000803e3d6000fd5b505050506040513d601f19601f820116820180604052508101906106c491906119dc565b905060045481101561070b576040517f08c379a000000000000000000000000000000000000000000000000000000000815260040161070290611d94565b60405180910390fd5b6000600360009054906101000a900473ffffffffffffffffffffffffffffffffffffffff1673ffffffffffffffffffffffffffffffffffffffff166323b872dd33306004546040518463ffffffff1660e01b815260040161076e93929190611db4565b6020604051808303816000875af115801561078d573d6000803e3d6000fd5b505050506040513d601f19601f820116820180604052508101906107b19190611af0565b9050806107f3576040517f08c379a00000000000000000000000000000000000000000000000000000000081526004016107ea90611e5d565b60405180910390fd5b60006040518060a001604052803373ffffffffffffffffffffffffffffffffffffffff1681526020018773ffffffffffffffffffffffffffffffffffffffff16815260200186868080601f016020809104026020016040519081016040528093929190818152602001838380828437600081840152601f19601f82011690508083019250505050505050815260200142815260200160011515815250905080600160003373ffffffffffffffffffffffffffffffffffffffff1673ffffffffffffffffffffffffffffffffffffffff16815260200190815260200160002060008201518160000160006101000a81548173ffffffffffffffffffffffffffffffffffffffff021916908373ffffffffffffffffffffffffffffffffffffffff16021790555060208201518160010160006101000a81548173ffffffffffffffffffffffffffffffffffffffff021916908373ffffffffffffffffffffffffffffffffffffffff160217905550604082015181600201908161097491906120ae565b506060820151816003015560808201518160040160006101000a81548160ff02191690831515021790555090505080600160008873ffffffffffffffffffffffffffffffffffffffff1673ffffffffffffffffffffffffffffffffffffffff16815260200190815260200160002060008201518160000160006101000a81548173ffffffffffffffffffffffffffffffffffffffff021916908373ffffffffffffffffffffffffffffffffffffffff16021790555060208201518160010160006101000a81548173ffffffffffffffffffffffffffffffffffffffff021916908373ffffffffffffffffffffffffffffffffffffffff1602179055506040820151816002019081610a8591906120ae565b506060820151816003015560808201518160040160006101000a81548160ff0219169083151502179055509050506001600260003373ffffffffffffffffffffffffffffffffffffffff1673ffffffffffffffffffffffffffffffffffffffff16815260200190815260200160002060006101000a81548160ff0219169083151502179055506001600260008873ffffffffffffffffffffffffffffffffffffffff1673ffffffffffffffffffffffffffffffffffffffff16815260200190815260200160002060006101000a81548160ff0219169083151502179055508573ffffffffffffffffffffffffffffffffffffffff163373ffffffffffffffffffffffffffffffffffffffff167ffaf9ad88c08994b0b7c0fc8f2671925bbef33b09de6d6f02ab41325adff6611c878742604051610bc4939291906121bc565b60405180910390a3505050505050565b610bdc6112cb565b610be66000611352565b565b610bf06112cb565b8060048190555050565b60008060009054906101000a900473ffffffffffffffffffffffffffffffffffffffff16905090565b60026020528060005260406000206000915054906101000a900460ff1681565b60045481565b610c5161141e565b600260008373ffffffffffffffffffffffffffffffffffffffff1673ffffffffffffffffffffffffffffffffffffffff16815260200190815260200160002060009054906101000a900460ff16610cdd576040517f08c379a0000000000000000000000000000000000000000000000000000000008152600401610cd490612260565b60405180910390fd5b600160008373ffffffffffffffffffffffffffffffffffffffff1673ffffffffffffffffffffffffffffffffffffffff1681526020019081526020016000206040518060a00160405290816000820160009054906101000a900473ffffffffffffffffffffffffffffffffffffffff1673ffffffffffffffffffffffffffffffffffffffff1673ffffffffffffffffffffffffffffffffffffffff1681526020016001820160009054906101000a900473ffffffffffffffffffffffffffffffffffffffff1673ffffffffffffffffffffffffffffffffffffffff1673ffffffffffffffffffffffffffffffffffffffff168152602001600282018054610de390611edb565b80601f0160208091040260200160405190810160405280929190818152602001828054610e0f90611edb565b8015610e5c5780601f10610e3157610100808354040283529160200191610e5c565b820191906000526020600020905b815481529060010190602001808311610e3f57829003601f168201915b50505050508152602001600382015481526020016004820160009054906101000a900460ff1615151515815250509050919050565b60016020528060005260406000206000915090508060000160009054906101000a900473ffffffffffffffffffffffffffffffffffffffff16908060010160009054906101000a900473ffffffffffffffffffffffffffffffffffffffff1690806002018054610f0090611edb565b80601f0160208091040260200160405190810160405280929190818152602001828054610f2c90611edb565b8015610f795780601f10610f4e57610100808354040283529160200191610f79565b820191906000526020600020905b815481529060010190602001808311610f5c57829003601f168201915b5050505050908060030154908060040160009054906101000a900460ff16905085565b600260003373ffffffffffffffffffffffffffffffffffffffff1673ffffffffffffffffffffffffffffffffffffffff16815260200190815260200160002060009054906101000a900460ff16611028576040517f08c379a000000000000000000000000000000000000000000000000000000000815260040161101f906122f2565b60405180910390fd5b6000600160003373ffffffffffffffffffffffffffffffffffffffff1673ffffffffffffffffffffffffffffffffffffffff16815260200190815260200160002090508060040160009054906101000a900460ff166110bc576040517f08c379a00000000000000000000000000000000000000000000000000000000081526004016110b390612384565b60405180910390fd5b60008160000160009054906101000a900473ffffffffffffffffffffffffffffffffffffffff16905060008260010160009054906101000a900473ffffffffffffffffffffffffffffffffffffffff16905060008360040160006101000a81548160ff0219169083151502179055506000600260008473ffffffffffffffffffffffffffffffffffffffff1673ffffffffffffffffffffffffffffffffffffffff16815260200190815260200160002060006101000a81548160ff0219169083151502179055506000600260008373ffffffffffffffffffffffffffffffffffffffff1673ffffffffffffffffffffffffffffffffffffffff16815260200190815260200160002060006101000a81548160ff0219169083151502179055508073ffffffffffffffffffffffffffffffffffffffff168273ffffffffffffffffffffffffffffffffffffffff167f7d135a0159af385755b4fe9e1077b30f5e76fe7967a6920e5a4be3716fe4d2d9426040516112389190611721565b60405180910390a3505050565b61124d6112cb565b600073ffffffffffffffffffffffffffffffffffffffff168173ffffffffffffffffffffffffffffffffffffffff16036112bf5760006040517f1e4fbdf70000000000000000000000000000000000000000000000000000000081526004016112b691906116c1565b60405180910390fd5b6112c881611352565b50565b6112d3611416565b73ffffffffffffffffffffffffffffffffffffffff166112f1610bfa565b73ffffffffffffffffffffffffffffffffffffffff161461135057611314611416565b6040517f118cdaa700000000000000000000000000000000000000000000000000000000815260040161134791906116c1565b60405180910390fd5b565b60008060009054906101000a900473ffffffffffffffffffffffffffffffffffffffff169050816000806101000a81548173ffffffffffffffffffffffffffffffffffffffff021916908373ffffffffffffffffffffffffffffffffffffffff1602179055508173ffffffffffffffffffffffffffffffffffffffff168173ffffffffffffffffffffffffffffffffffffffff167f8be0079c531659141344cd1fd0a4f28419497f9722a3daafe3b4186f6b6457e060405160405180910390a35050565b600033905090565b6040518060a00160405280600073ffffffffffffffffffffffffffffffffffffffff168152602001600073ffffffffffffffffffffffffffffffffffffffff16815260200160608152602001600081526020016000151581525090565b600080fd5b600080fd5b600073ffffffffffffffffffffffffffffffffffffffff82169050919050565b60006114b082611485565b9050919050565b6114c0816114a5565b81146114cb57600080fd5b50565b6000813590506114dd816114b7565b92915050565b6000602082840312156114f9576114f861147b565b5b6000611507848285016114ce565b91505092915050565b6000819050919050565b600061153561153061152b84611485565b611510565b611485565b9050919050565b60006115478261151a565b9050919050565b60006115598261153c565b9050919050565b6115698161154e565b82525050565b60006020820190506115846000830184611560565b92915050565b600080fd5b600080fd5b600080fd5b60008083601f8401126115af576115ae61158a565b5b8235905067ffffffffffffffff8111156115cc576115cb61158f565b5b6020830191508360018202830111156115e8576115e7611594565b5b9250929050565b6000806000604084860312156116085761160761147b565b5b6000611616868287016114ce565b935050602084013567ffffffffffffffff81111561163757611636611480565b5b61164386828701611599565b92509250509250925092565b6000819050919050565b6116628161164f565b811461166d57600080fd5b50565b60008135905061167f81611659565b92915050565b60006020828403121561169b5761169a61147b565b5b60006116a984828501611670565b91505092915050565b6116bb816114a5565b82525050565b60006020820190506116d660008301846116b2565b92915050565b60008115159050919050565b6116f1816116dc565b82525050565b600060208201905061170c60008301846116e8565b92915050565b61171b8161164f565b82525050565b60006020820190506117366000830184611712565b92915050565b611745816114a5565b82525050565b600081519050919050565b600082825260208201905092915050565b60005b8381101561178557808201518184015260208101905061176a565b60008484015250505050565b6000601f19601f8301169050919050565b60006117ad8261174b565b6117b78185611756565b93506117c7818560208601611767565b6117d081611791565b840191505092915050565b6117e48161164f565b82525050565b6117f3816116dc565b82525050565b600060a083016000830151611811600086018261173c565b506020830151611824602086018261173c565b506040830151848203604086015261183c82826117a2565b915050606083015161185160608601826117db565b50608083015161186460808601826117ea565b508091505092915050565b6000602082019050818103600083015261188981846117f9565b905092915050565b600082825260208201905092915050565b60006118ad8261174b565b6118b78185611891565b93506118c7818560208601611767565b6118d081611791565b840191505092915050565b600060a0820190506118f060008301886116b2565b6118fd60208301876116b2565b818103604083015261190f81866118a2565b905061191e6060830185611712565b61192b60808301846116e8565b9695505050505050565b7f4d6172726961676552656769737472793a20446972656363696f6e206465207460008201527f6f6b656e20696e76616c69646100000000000000000000000000000000000000602082015250565b6000611991602d83611891565b915061199c82611935565b604082019050919050565b600060208201905081810360008301526119c081611984565b9050919050565b6000815190506119d681611659565b92915050565b6000602082840312156119f2576119f161147b565b5b6000611a00848285016119c7565b91505092915050565b7f4d6172726961676552656769737472793a204e6f2068617920666f6e646f732060008201527f7061726120726574697261720000000000000000000000000000000000000000602082015250565b6000611a65602c83611891565b9150611a7082611a09565b604082019050919050565b60006020820190508181036000830152611a9481611a58565b9050919050565b6000604082019050611ab060008301856116b2565b611abd6020830184611712565b9392505050565b611acd816116dc565b8114611ad857600080fd5b50565b600081519050611aea81611ac4565b92915050565b600060208284031215611b0657611b0561147b565b5b6000611b1484828501611adb565b91505092915050565b7f4d6172726961676552656769737472793a204e6f20707565646573206361736160008201527f72746520636f6e7469676f206d69736d6f000000000000000000000000000000602082015250565b6000611b79603183611891565b9150611b8482611b1d565b604082019050919050565b60006020820190508181036000830152611ba881611b6c565b9050919050565b7f4d6172726961676552656769737472793a20596120657374617320636173616460008201527f6f00000000000000000000000000000000000000000000000000000000000000602082015250565b6000611c0b602183611891565b9150611c1682611baf565b604082019050919050565b60006020820190508181036000830152611c3a81611bfe565b9050919050565b7f4d6172726961676552656769737472793a20547520706172656a61207961206560008201527f7374612063617361646100000000000000000000000000000000000000000000602082015250565b6000611c9d602a83611891565b9150611ca882611c41565b604082019050919050565b60006020820190508181036000830152611ccc81611c90565b9050919050565b6000604082019050611ce860008301856116b2565b611cf560208301846116b2565b9392505050565b7f4d6172726961676552656769737472793a20526576697361206c61206170726f60008201527f626163696f6e2064656c20746f6b656e2c20657320696e737566696369656e7460208201527f6500000000000000000000000000000000000000000000000000000000000000604082015250565b6000611d7e604183611891565b9150611d8982611cfc565b606082019050919050565b60006020820190508181036000830152611dad81611d71565b9050919050565b6000606082019050611dc960008301866116b2565b611dd660208301856116b2565b611de36040830184611712565b949350505050565b7f4d6172726961676552656769737472793a204c61207472616e73666572656e6360008201527f69612064656c20746f6b656e2066616c6c6f0000000000000000000000000000602082015250565b6000611e47603283611891565b9150611e5282611deb565b604082019050919050565b60006020820190508181036000830152611e7681611e3a565b9050919050565b7f4e487b7100000000000000000000000000000000000000000000000000000000600052604160045260246000fd5b7f4e487b7100000000000000000000000000000000000000000000000000000000600052602260045260246000fd5b60006002820490506001821680611ef357607f821691505b602082108103611f0657611f05611eac565b5b50919050565b60008190508160005260206000209050919050565b60006020601f8301049050919050565b600082821b905092915050565b600060088302611f6e7fffffffffffffffffffffffffffffffffffffffffffffffffffffffffffffffff82611f31565b611f788683611f31565b95508019841693508086168417925050509392505050565b6000611fab611fa6611fa18461164f565b611510565b61164f565b9050919050565b6000819050919050565b611fc583611f90565b611fd9611fd182611fb2565b848454611f3e565b825550505050565b600090565b611fee611fe1565b611ff9818484611fbc565b505050565b5b8181101561201d57612012600082611fe6565b600181019050611fff565b5050565b601f8211156120625761203381611f0c565b61203c84611f21565b8101602085101561204b578190505b61205f61205785611f21565b830182611ffe565b50505b505050565b600082821c905092915050565b600061208560001984600802612067565b1980831691505092915050565b600061209e8383612074565b9150826002028217905092915050565b6120b78261174b565b67ffffffffffffffff8111156120d0576120cf611e7d565b5b6120da8254611edb565b6120e5828285612021565b600060209050601f8311600181146121185760008415612106578287015190505b6121108582612092565b865550612178565b601f19841661212686611f0c565b60005b8281101561214e57848901518255600182019150602085019450602081019050612129565b8683101561216b5784890151612167601f891682612074565b8355505b6001600288020188555050505b505050505050565b82818337600083830152505050565b600061219b8385611891565b93506121a8838584612180565b6121b183611791565b840190509392505050565b600060408201905081810360008301526121d781858761218f565b90506121e66020830184611712565b949350505050565b7f4d6172726961676552656769737472793a20456c207573756172696f206e6f2060008201527f657374612063617361646f000000000000000000000000000000000000000000602082015250565b600061224a602b83611891565b9150612255826121ee565b604082019050919050565b600060208201905081810360008301526122798161223d565b9050919050565b7f4d6172726961676552656769737472793a204e6f20657374617320636173616460008201527f6f00000000000000000000000000000000000000000000000000000000000000602082015250565b60006122dc602183611891565b91506122e782612280565b604082019050919050565b6000602082019050818103600083015261230b816122cf565b9050919050565b7f4d6172726961676552656769737472793a205475206d617472696d6f6e696f2060008201527f7961206573746120696e61637469766f00000000000000000000000000000000602082015250565b600061236e603083611891565b915061237982612312565b604082019050919050565b6000602082019050818103600083015261239d81612361565b905091905056fea2646970667358221220ec9223fdedc8dd557863f0a59d13a12f763a906c3d039b004b981e30e5430ef464736f6c63430008140033",
  "linkReferences": {},
  "deployedLinkReferences": {}
}