{
  "_format": "hh-sol-artifact-1",
  "contractName": "SimpleStorage",
  "sourceName": "contracts/SimpleStorage.sol",
  "abi": [
    {
      "anonymous": false,
      "inputs": [
        {
          "indexed": true,
          "internalType": "address",
          "name": "partner1",
          "type": "address"
        },
        {
          "indexed": true,
          "internalType": "address",
          "name": "partner2",
          "type": "address"
        },
        {
          "indexed": false,
          "internalType": "string",
          "name": "message",
          "type": "string"
        },
        {
          "indexed": false,
          "internalType": "uint256",
          "name": "timestamp",
          "type": "uint256"
        }
      ],
      "name": "MarriageCreated",
      "type": "event"
    },
    {
      "inputs": [
        {
          "internalType": "address",
          "name": "_user",
          "type": "address"
        }
      ],
      "name": "getMarriage",
      "outputs": [
        {
          "components": [
            {
              "internalType": "address",
              "name": "partner1",
              "type": "address"
            },
            {
              "internalType": "address",
              "name": "partner2",
              "type": "address"
            },
            {
              "internalType": "string",
              "name": "message",
              "type": "string"
            },
            {
              "internalType": "uint256",
              "name": "timestamp",
              "type": "uint256"
            },
            {
              "internalType": "bool",
              "name": "isActive",
              "type": "bool"
            }
          ],
          "internalType": "struct SimpleStorage.Marriage",
          "name": "",
          "type": "tuple"
        }
      ],
      "stateMutability": "view",
      "type": "function"
    },
    {
      "inputs": [
        {
          "internalType": "address",
          "name": "",
          "type": "address"
        }
      ],
      "name": "isMarried",
      "outputs": [
        {
          "internalType": "bool",
          "name": "",
          "type": "bool"
        }
      ],
      "stateMutability": "view",
      "type": "function"
    },
    {
      "inputs": [
        {
          "internalType": "address",
          "name": "",
          "type": "address"
        }
      ],
      "name": "marriages",
      "outputs": [
        {
          "internalType": "address",
          "name": "partner1",
          "type": "address"
        },
        {
          "internalType": "address",
          "name": "partner2",
          "type": "address"
        },
        {
          "internalType": "string",
          "name": "message",
          "type": "string"
        },
        {
          "internalType": "uint256",
          "name": "timestamp",
          "type": "uint256"
        },
        {
          "internalType": "bool",
          "name": "isActive",
          "type": "bool"
        }
      ],
      "stateMutability": "view",
      "type": "function"
    },
    {
      "inputs": [
        {
          "internalType": "address",
          "name": "_partner",
          "type": "address"
        },
        {
          "internalType": "string",
          "name": "_message",
          "type": "string"
        }
      ],
      "name": "marry",
      "outputs": [],
      "stateMutability": "nonpayable",
      "type": "function"
    }
  ],
  "bytecode": "0x608060405234801561001057600080fd5b5061124d806100206000396000f3fe608060405234801561001057600080fd5b506004361061004c5760003560e01c80636b86741e1461005157806385b0d82c1461006d5780639c66b57f1461009d578063c400ad70146100cd575b600080fd5b61006b60048036038101906100669190610a74565b610101565b005b61008760048036038101906100829190610ad4565b610664565b6040516100949190610c4a565b60405180910390f35b6100b760048036038101906100b29190610ad4565b61081f565b6040516100c49190610c7b565b60405180910390f35b6100e760048036038101906100e29190610ad4565b61083f565b6040516100f8959493929190610cfe565b60405180910390f35b8273ffffffffffffffffffffffffffffffffffffffff163373ffffffffffffffffffffffffffffffffffffffff160361016f576040517f08c379a000000000000000000000000000000000000000000000000000000000815260040161016690610da4565b60405180910390fd5b600160003373ffffffffffffffffffffffffffffffffffffffff1673ffffffffffffffffffffffffffffffffffffffff16815260200190815260200160002060009054906101000a900460ff16156101fc576040517f08c379a00000000000000000000000000000000000000000000000000000000081526004016101f390610e10565b60405180910390fd5b600160008473ffffffffffffffffffffffffffffffffffffffff1673ffffffffffffffffffffffffffffffffffffffff16815260200190815260200160002060009054906101000a900460ff1615610289576040517f08c379a000000000000000000000000000000000000000000000000000000000815260040161028090610e7c565b60405180910390fd5b60006040518060a001604052803373ffffffffffffffffffffffffffffffffffffffff1681526020018573ffffffffffffffffffffffffffffffffffffffff16815260200184848080601f016020809104026020016040519081016040528093929190818152602001838380828437600081840152601f19601f820116905080830192505050505050508152602001428152602001600115158152509050806000803373ffffffffffffffffffffffffffffffffffffffff1673ffffffffffffffffffffffffffffffffffffffff16815260200190815260200160002060008201518160000160006101000a81548173ffffffffffffffffffffffffffffffffffffffff021916908373ffffffffffffffffffffffffffffffffffffffff16021790555060208201518160010160006101000a81548173ffffffffffffffffffffffffffffffffffffffff021916908373ffffffffffffffffffffffffffffffffffffffff160217905550604082015181600201908161040991906110d7565b506060820151816003015560808201518160040160006101000a81548160ff021916908315150217905550905050806000808673ffffffffffffffffffffffffffffffffffffffff1673ffffffffffffffffffffffffffffffffffffffff16815260200190815260200160002060008201518160000160006101000a81548173ffffffffffffffffffffffffffffffffffffffff021916908373ffffffffffffffffffffffffffffffffffffffff16021790555060208201518160010160006101000a81548173ffffffffffffffffffffffffffffffffffffffff021916908373ffffffffffffffffffffffffffffffffffffffff160217905550604082015181600201908161051991906110d7565b506060820151816003015560808201518160040160006101000a81548160ff02191690831515021790555090505060018060003373ffffffffffffffffffffffffffffffffffffffff1673ffffffffffffffffffffffffffffffffffffffff16815260200190815260200160002060006101000a81548160ff02191690831515021790555060018060008673ffffffffffffffffffffffffffffffffffffffff1673ffffffffffffffffffffffffffffffffffffffff16815260200190815260200160002060006101000a81548160ff0219169083151502179055508373ffffffffffffffffffffffffffffffffffffffff163373ffffffffffffffffffffffffffffffffffffffff167ffaf9ad88c08994b0b7c0fc8f2671925bbef33b09de6d6f02ab41325adff6611c858542604051610656939291906111e5565b60405180910390a350505050565b61066c61094a565b6000808373ffffffffffffffffffffffffffffffffffffffff1673ffffffffffffffffffffffffffffffffffffffff1681526020019081526020016000206040518060a00160405290816000820160009054906101000a900473ffffffffffffffffffffffffffffffffffffffff1673ffffffffffffffffffffffffffffffffffffffff1673ffffffffffffffffffffffffffffffffffffffff1681526020016001820160009054906101000a900473ffffffffffffffffffffffffffffffffffffffff1673ffffffffffffffffffffffffffffffffffffffff1673ffffffffffffffffffffffffffffffffffffffff16815260200160028201805461077190610efa565b80601f016020809104026020016040519081016040528092919081815260200182805461079d90610efa565b80156107ea5780601f106107bf576101008083540402835291602001916107ea565b820191906000526020600020905b8154815290600101906020018083116107cd57829003601f168201915b50505050508152602001600382015481526020016004820160009054906101000a900460ff1615151515815250509050919050565b60016020528060005260406000206000915054906101000a900460ff1681565b60006020528060005260406000206000915090508060000160009054906101000a900473ffffffffffffffffffffffffffffffffffffffff16908060010160009054906101000a900473ffffffffffffffffffffffffffffffffffffffff16908060020180546108ae90610efa565b80601f01602080910402602001604051908101604052809291908181526020018280546108da90610efa565b80156109275780601f106108fc57610100808354040283529160200191610927565b820191906000526020600020905b81548152906001019060200180831161090a57829003601f168201915b5050505050908060030154908060040160009054906101000a900460ff16905085565b6040518060a00160405280600073ffffffffffffffffffffffffffffffffffffffff168152602001600073ffffffffffffffffffffffffffffffffffffffff16815260200160608152602001600081526020016000151581525090565b600080fd5b600080fd5b600073ffffffffffffffffffffffffffffffffffffffff82169050919050565b60006109dc826109b1565b9050919050565b6109ec816109d1565b81146109f757600080fd5b50565b600081359050610a09816109e3565b92915050565b600080fd5b600080fd5b600080fd5b60008083601f840112610a3457610a33610a0f565b5b8235905067ffffffffffffffff811115610a5157610a50610a14565b5b602083019150836001820283011115610a6d57610a6c610a19565b5b9250929050565b600080600060408486031215610a8d57610a8c6109a7565b5b6000610a9b868287016109fa565b935050602084013567ffffffffffffffff811115610abc57610abb6109ac565b5b610ac886828701610a1e565b92509250509250925092565b600060208284031215610aea57610ae96109a7565b5b6000610af8848285016109fa565b91505092915050565b610b0a816109d1565b82525050565b600081519050919050565b600082825260208201905092915050565b60005b83811015610b4a578082015181840152602081019050610b2f565b60008484015250505050565b6000601f19601f8301169050919050565b6000610b7282610b10565b610b7c8185610b1b565b9350610b8c818560208601610b2c565b610b9581610b56565b840191505092915050565b6000819050919050565b610bb381610ba0565b82525050565b60008115159050919050565b610bce81610bb9565b82525050565b600060a083016000830151610bec6000860182610b01565b506020830151610bff6020860182610b01565b5060408301518482036040860152610c178282610b67565b9150506060830151610c2c6060860182610baa565b506080830151610c3f6080860182610bc5565b508091505092915050565b60006020820190508181036000830152610c648184610bd4565b905092915050565b610c7581610bb9565b82525050565b6000602082019050610c906000830184610c6c565b92915050565b610c9f816109d1565b82525050565b600082825260208201905092915050565b6000610cc182610b10565b610ccb8185610ca5565b9350610cdb818560208601610b2c565b610ce481610b56565b840191505092915050565b610cf881610ba0565b82525050565b600060a082019050610d136000830188610c96565b610d206020830187610c96565b8181036040830152610d328186610cb6565b9050610d416060830185610cef565b610d4e6080830184610c6c565b9695505050505050565b7f4e6f20707565646573206361736172746520636f6e7469676f206d69736d6f00600082015250565b6000610d8e601f83610ca5565b9150610d9982610d58565b602082019050919050565b60006020820190508181036000830152610dbd81610d81565b9050919050565b7f59612065737461732063617361646f0000000000000000000000000000000000600082015250565b6000610dfa600f83610ca5565b9150610e0582610dc4565b602082019050919050565b60006020820190508181036000830152610e2981610ded565b9050919050565b7f547520706172656a612079612065737461206361736164610000000000000000600082015250565b6000610e66601883610ca5565b9150610e7182610e30565b602082019050919050565b60006020820190508181036000830152610e9581610e59565b9050919050565b7f4e487b7100000000000000000000000000000000000000000000000000000000600052604160045260246000fd5b7f4e487b7100000000000000000000000000000000000000000000000000000000600052602260045260246000fd5b60006002820490506001821680610f1257607f821691505b602082108103610f2557610f24610ecb565b5b50919050565b60008190508160005260206000209050919050565b60006020601f8301049050919050565b600082821b905092915050565b600060088302610f8d7fffffffffffffffffffffffffffffffffffffffffffffffffffffffffffffffff82610f50565b610f978683610f50565b95508019841693508086168417925050509392505050565b6000819050919050565b6000610fd4610fcf610fca84610ba0565b610faf565b610ba0565b9050919050565b6000819050919050565b610fee83610fb9565b611002610ffa82610fdb565b848454610f5d565b825550505050565b600090565b61101761100a565b611022818484610fe5565b505050565b5b818110156110465761103b60008261100f565b600181019050611028565b5050565b601f82111561108b5761105c81610f2b565b61106584610f40565b81016020851015611074578190505b61108861108085610f40565b830182611027565b50505b505050565b600082821c905092915050565b60006110ae60001984600802611090565b1980831691505092915050565b60006110c7838361109d565b9150826002028217905092915050565b6110e082610b10565b67ffffffffffffffff8111156110f9576110f8610e9c565b5b6111038254610efa565b61110e82828561104a565b600060209050601f831160018114611141576000841561112f578287015190505b61113985826110bb565b8655506111a1565b601f19841661114f86610f2b565b60005b8281101561117757848901518255600182019150602085019450602081019050611152565b868310156111945784890151611190601f89168261109d565b8355505b6001600288020188555050505b505050505050565b82818337600083830152505050565b60006111c48385610ca5565b93506111d18385846111a9565b6111da83610b56565b840190509392505050565b600060408201905081810360008301526112008185876111b8565b905061120f6020830184610cef565b94935050505056fea2646970667358221220c4e103a3c43721d9d0344317b0dcbdbff11530705387fa5c85e58a4cfb820d2d64736f6c63430008140033",
  "linkReferences": {},
  "deployedLinkReferences": {}
}